{
  "address": "0x9fE46736679d2D9a65F0992F2272dE9f3c7fa6e0",
  "abi": [
    {
      "inputs": [],
      "stateMutability": "nonpayable",
      "type": "constructor"
    },
    {
      "anonymous": false,
      "inputs": [
        {
          "indexed": true,
          "internalType": "address",
          "name": "owner",
          "type": "address"
        },
        {
          "indexed": true,
          "internalType": "address",
          "name": "approved",
          "type": "address"
        },
        {
          "indexed": true,
          "internalType": "uint256",
          "name": "tokenId",
          "type": "uint256"
        }
      ],
      "name": "Approval",
      "type": "event"
    },
    {
      "anonymous": false,
      "inputs": [
        {
          "indexed": true,
          "internalType": "address",
          "name": "owner",
          "type": "address"
        },
        {
          "indexed": true,
          "internalType": "address",
          "name": "operator",
          "type": "address"
        },
        {
          "indexed": false,
          "internalType": "bool",
          "name": "approved",
          "type": "bool"
        }
      ],
      "name": "ApprovalForAll",
      "type": "event"
    },
    {
      "anonymous": false,
      "inputs": [
        {
          "indexed": true,
          "internalType": "address",
          "name": "from",
          "type": "address"
        },
        {
          "indexed": true,
          "internalType": "address",
          "name": "to",
          "type": "address"
        },
        {
          "indexed": true,
          "internalType": "uint256",
          "name": "tokenId",
          "type": "uint256"
        }
      ],
      "name": "Transfer",
      "type": "event"
    },
    {
      "anonymous": false,
      "inputs": [
        {
          "indexed": true,
          "internalType": "uint256",
          "name": "tokenId",
          "type": "uint256"
        },
        {
          "indexed": false,
          "internalType": "string",
          "name": "mediaURI",
          "type": "string"
        }
      ],
      "name": "mediaMinted",
      "type": "event"
    },
    {
      "inputs": [
        {
          "internalType": "address",
          "name": "to",
          "type": "address"
        },
        {
          "internalType": "uint256",
          "name": "tokenId",
          "type": "uint256"
        }
      ],
      "name": "approve",
      "outputs": [],
      "stateMutability": "nonpayable",
      "type": "function"
    },
    {
      "inputs": [
        {
          "internalType": "address",
          "name": "owner",
          "type": "address"
        }
      ],
      "name": "balanceOf",
      "outputs": [
        {
          "internalType": "uint256",
          "name": "",
          "type": "uint256"
        }
      ],
      "stateMutability": "view",
      "type": "function"
    },
    {
      "inputs": [
        {
          "internalType": "uint256",
          "name": "tokenId",
          "type": "uint256"
        }
      ],
      "name": "getApproved",
      "outputs": [
        {
          "internalType": "address",
          "name": "",
          "type": "address"
        }
      ],
      "stateMutability": "view",
      "type": "function"
    },
    {
      "inputs": [
        {
          "internalType": "address",
          "name": "owner",
          "type": "address"
        },
        {
          "internalType": "address",
          "name": "operator",
          "type": "address"
        }
      ],
      "name": "isApprovedForAll",
      "outputs": [
        {
          "internalType": "bool",
          "name": "",
          "type": "bool"
        }
      ],
      "stateMutability": "view",
      "type": "function"
    },
    {
      "inputs": [
        {
          "internalType": "string",
          "name": "mediaURI",
          "type": "string"
        }
      ],
      "name": "mintNft",
      "outputs": [],
      "stateMutability": "nonpayable",
      "type": "function"
    },
    {
      "inputs": [],
      "name": "name",
      "outputs": [
        {
          "internalType": "string",
          "name": "",
          "type": "string"
        }
      ],
      "stateMutability": "view",
      "type": "function"
    },
    {
      "inputs": [
        {
          "internalType": "uint256",
          "name": "tokenId",
          "type": "uint256"
        }
      ],
      "name": "ownerOf",
      "outputs": [
        {
          "internalType": "address",
          "name": "",
          "type": "address"
        }
      ],
      "stateMutability": "view",
      "type": "function"
    },
    {
      "inputs": [
        {
          "internalType": "address",
          "name": "from",
          "type": "address"
        },
        {
          "internalType": "address",
          "name": "to",
          "type": "address"
        },
        {
          "internalType": "uint256",
          "name": "tokenId",
          "type": "uint256"
        }
      ],
      "name": "safeTransferFrom",
      "outputs": [],
      "stateMutability": "nonpayable",
      "type": "function"
    },
    {
      "inputs": [
        {
          "internalType": "address",
          "name": "from",
          "type": "address"
        },
        {
          "internalType": "address",
          "name": "to",
          "type": "address"
        },
        {
          "internalType": "uint256",
          "name": "tokenId",
          "type": "uint256"
        },
        {
          "internalType": "bytes",
          "name": "data",
          "type": "bytes"
        }
      ],
      "name": "safeTransferFrom",
      "outputs": [],
      "stateMutability": "nonpayable",
      "type": "function"
    },
    {
      "inputs": [
        {
          "internalType": "address",
          "name": "operator",
          "type": "address"
        },
        {
          "internalType": "bool",
          "name": "approved",
          "type": "bool"
        }
      ],
      "name": "setApprovalForAll",
      "outputs": [],
      "stateMutability": "nonpayable",
      "type": "function"
    },
    {
      "inputs": [
        {
          "internalType": "bytes4",
          "name": "interfaceId",
          "type": "bytes4"
        }
      ],
      "name": "supportsInterface",
      "outputs": [
        {
          "internalType": "bool",
          "name": "",
          "type": "bool"
        }
      ],
      "stateMutability": "view",
      "type": "function"
    },
    {
      "inputs": [],
      "name": "symbol",
      "outputs": [
        {
          "internalType": "string",
          "name": "",
          "type": "string"
        }
      ],
      "stateMutability": "view",
      "type": "function"
    },
    {
      "inputs": [
        {
          "internalType": "uint256",
          "name": "tokenId",
          "type": "uint256"
        }
      ],
      "name": "tokenURI",
      "outputs": [
        {
          "internalType": "string",
          "name": "",
          "type": "string"
        }
      ],
      "stateMutability": "view",
      "type": "function"
    },
    {
      "inputs": [
        {
          "internalType": "address",
          "name": "from",
          "type": "address"
        },
        {
          "internalType": "address",
          "name": "to",
          "type": "address"
        },
        {
          "internalType": "uint256",
          "name": "tokenId",
          "type": "uint256"
        }
      ],
      "name": "transferFrom",
      "outputs": [],
      "stateMutability": "nonpayable",
      "type": "function"
    }
  ],
  "transactionHash": "0x308d50afee8e555c5bbc7d10315717bcb6e694333f9f9714d8ab9acc3701d0d7",
  "args": [],
  "numDeployments": 1,
  "solcInputHash": "efc6f6e014541af760198f452fc59437",
  "bytecode": "0x60806040523480156200001157600080fd5b506040518060400160405280600981526020017f46616b654d6564696100000000000000000000000000000000000000000000008152506040518060400160405280600281526020017f464d000000000000000000000000000000000000000000000000000000000000815250816000908051906020019062000096929190620000c0565b508060019080519060200190620000af929190620000c0565b5050506000600681905550620001d5565b828054620000ce9062000170565b90600052602060002090601f016020900481019282620000f257600085556200013e565b82601f106200010d57805160ff19168380011785556200013e565b828001600101855582156200013e579182015b828111156200013d57825182559160200191906001019062000120565b5b5090506200014d919062000151565b5090565b5b808211156200016c57600081600090555060010162000152565b5090565b600060028204905060018216806200018957607f821691505b60208210811415620001a0576200019f620001a6565b5b50919050565b7f4e487b7100000000000000000000000000000000000000000000000000000000600052602260045260246000fd5b61259f80620001e56000396000f3fe608060405234801561001057600080fd5b50600436106100ea5760003560e01c806370a082311161008c578063b88d4fde11610066578063b88d4fde1461025b578063c87b56dd14610277578063da86f4a9146102a7578063e985e9c5146102c3576100ea565b806370a08231146101f157806395d89b4114610221578063a22cb4651461023f576100ea565b8063095ea7b3116100c8578063095ea7b31461016d57806323b872dd1461018957806342842e0e146101a55780636352211e146101c1576100ea565b806301ffc9a7146100ef57806306fdde031461011f578063081812fc1461013d575b600080fd5b610109600480360381019061010491906119f2565b6102f3565b6040516101169190611d6c565b60405180910390f35b6101276103d5565b6040516101349190611d87565b60405180910390f35b61015760048036038101906101529190611a95565b610467565b6040516101649190611d05565b60405180910390f35b610187600480360381019061018291906119b2565b6104ad565b005b6101a3600480360381019061019e919061189c565b6105c5565b005b6101bf60048036038101906101ba919061189c565b610625565b005b6101db60048036038101906101d69190611a95565b610645565b6040516101e89190611d05565b60405180910390f35b61020b6004803603810190610206919061182f565b6106cc565b6040516102189190611f29565b60405180910390f35b610229610784565b6040516102369190611d87565b60405180910390f35b61025960048036038101906102549190611972565b610816565b005b610275600480360381019061027091906118ef565b61082c565b005b610291600480360381019061028c9190611a95565b61088e565b60405161029e9190611d87565b60405180910390f35b6102c160048036038101906102bc9190611a4c565b61097b565b005b6102dd60048036038101906102d8919061185c565b610a06565b6040516102ea9190611d6c565b60405180910390f35b60007f80ac58cd000000000000000000000000000000000000000000000000000000007bffffffffffffffffffffffffffffffffffffffffffffffffffffffff1916827bffffffffffffffffffffffffffffffffffffffffffffffffffffffff191614806103be57507f5b5e139f000000000000000000000000000000000000000000000000000000007bffffffffffffffffffffffffffffffffffffffffffffffffffffffff1916827bffffffffffffffffffffffffffffffffffffffffffffffffffffffff1916145b806103ce57506103cd82610a9a565b5b9050919050565b6060600080546103e4906120b9565b80601f0160208091040260200160405190810160405280929190818152602001828054610410906120b9565b801561045d5780601f106104325761010080835404028352916020019161045d565b820191906000526020600020905b81548152906001019060200180831161044057829003601f168201915b5050505050905090565b600061047282610b04565b6004600083815260200190815260200160002060009054906101000a900473ffffffffffffffffffffffffffffffffffffffff169050919050565b60006104b882610645565b90508073ffffffffffffffffffffffffffffffffffffffff168373ffffffffffffffffffffffffffffffffffffffff161415610529576040517f08c379a000000000000000000000000000000000000000000000000000000000815260040161052090611ee9565b60405180910390fd5b8073ffffffffffffffffffffffffffffffffffffffff16610548610b4f565b73ffffffffffffffffffffffffffffffffffffffff161480610577575061057681610571610b4f565b610a06565b5b6105b6576040517f08c379a00000000000000000000000000000000000000000000000000000000081526004016105ad90611f09565b60405180910390fd5b6105c08383610b57565b505050565b6105d66105d0610b4f565b82610c10565b610615576040517f08c379a000000000000000000000000000000000000000000000000000000000815260040161060c90611da9565b60405180910390fd5b610620838383610ca5565b505050565b6106408383836040518060200160405280600081525061082c565b505050565b60008061065183610f9f565b9050600073ffffffffffffffffffffffffffffffffffffffff168173ffffffffffffffffffffffffffffffffffffffff1614156106c3576040517f08c379a00000000000000000000000000000000000000000000000000000000081526004016106ba90611ec9565b60405180910390fd5b80915050919050565b60008073ffffffffffffffffffffffffffffffffffffffff168273ffffffffffffffffffffffffffffffffffffffff16141561073d576040517f08c379a000000000000000000000000000000000000000000000000000000000815260040161073490611e89565b60405180910390fd5b600360008373ffffffffffffffffffffffffffffffffffffffff1673ffffffffffffffffffffffffffffffffffffffff168152602001908152602001600020549050919050565b606060018054610793906120b9565b80601f01602080910402602001604051908101604052809291908181526020018280546107bf906120b9565b801561080c5780601f106107e15761010080835404028352916020019161080c565b820191906000526020600020905b8154815290600101906020018083116107ef57829003601f168201915b5050505050905090565b610828610821610b4f565b8383610fdc565b5050565b61083d610837610b4f565b83610c10565b61087c576040517f08c379a000000000000000000000000000000000000000000000000000000000815260040161087390611da9565b60405180910390fd5b61088884848484611149565b50505050565b6060610899826111a5565b6108d8576040517f08c379a00000000000000000000000000000000000000000000000000000000081526004016108cf90611dc9565b60405180910390fd5b6007600083815260200190815260200160002080546108f6906120b9565b80601f0160208091040260200160405190810160405280929190818152602001828054610922906120b9565b801561096f5780601f106109445761010080835404028352916020019161096f565b820191906000526020600020905b81548152906001019060200180831161095257829003601f168201915b50505050509050919050565b610987336006546111e6565b8060076000600654815260200190815260200160002090805190602001906109b0929190611643565b506006547f713a62bf12f240e659a3d06ea359f75473ca995838866a3204e2c8a968e33942826040516109e39190611d87565b60405180910390a2600660008154809291906109fe9061211c565b919050555050565b6000600560008473ffffffffffffffffffffffffffffffffffffffff1673ffffffffffffffffffffffffffffffffffffffff16815260200190815260200160002060008373ffffffffffffffffffffffffffffffffffffffff1673ffffffffffffffffffffffffffffffffffffffff16815260200190815260200160002060009054906101000a900460ff16905092915050565b60007f01ffc9a7000000000000000000000000000000000000000000000000000000007bffffffffffffffffffffffffffffffffffffffffffffffffffffffff1916827bffffffffffffffffffffffffffffffffffffffffffffffffffffffff1916149050919050565b610b0d816111a5565b610b4c576040517f08c379a0000000000000000000000000000000000000000000000000000000008152600401610b4390611ec9565b60405180910390fd5b50565b600033905090565b816004600083815260200190815260200160002060006101000a81548173ffffffffffffffffffffffffffffffffffffffff021916908373ffffffffffffffffffffffffffffffffffffffff160217905550808273ffffffffffffffffffffffffffffffffffffffff16610bca83610645565b73ffffffffffffffffffffffffffffffffffffffff167f8c5be1e5ebec7d5bd14f71427d1e84f3dd0314c0f7b2291e5b200ac8c7c3b92560405160405180910390a45050565b600080610c1c83610645565b90508073ffffffffffffffffffffffffffffffffffffffff168473ffffffffffffffffffffffffffffffffffffffff161480610c5e5750610c5d8185610a06565b5b80610c9c57508373ffffffffffffffffffffffffffffffffffffffff16610c8484610467565b73ffffffffffffffffffffffffffffffffffffffff16145b91505092915050565b8273ffffffffffffffffffffffffffffffffffffffff16610cc582610645565b73ffffffffffffffffffffffffffffffffffffffff1614610d1b576040517f08c379a0000000000000000000000000000000000000000000000000000000008152600401610d1290611e09565b60405180910390fd5b600073ffffffffffffffffffffffffffffffffffffffff168273ffffffffffffffffffffffffffffffffffffffff161415610d8b576040517f08c379a0000000000000000000000000000000000000000000000000000000008152600401610d8290611e49565b60405180910390fd5b610d988383836001611204565b8273ffffffffffffffffffffffffffffffffffffffff16610db882610645565b73ffffffffffffffffffffffffffffffffffffffff1614610e0e576040517f08c379a0000000000000000000000000000000000000000000000000000000008152600401610e0590611e09565b60405180910390fd5b6004600082815260200190815260200160002060006101000a81549073ffffffffffffffffffffffffffffffffffffffff02191690556001600360008573ffffffffffffffffffffffffffffffffffffffff1673ffffffffffffffffffffffffffffffffffffffff168152602001908152602001600020600082825403925050819055506001600360008473ffffffffffffffffffffffffffffffffffffffff1673ffffffffffffffffffffffffffffffffffffffff16815260200190815260200160002060008282540192505081905550816002600083815260200190815260200160002060006101000a81548173ffffffffffffffffffffffffffffffffffffffff021916908373ffffffffffffffffffffffffffffffffffffffff160217905550808273ffffffffffffffffffffffffffffffffffffffff168473ffffffffffffffffffffffffffffffffffffffff167fddf252ad1be2c89b69c2b068fc378daa952ba7f163c4a11628f55a4df523b3ef60405160405180910390a4610f9a838383600161120a565b505050565b60006002600083815260200190815260200160002060009054906101000a900473ffffffffffffffffffffffffffffffffffffffff169050919050565b8173ffffffffffffffffffffffffffffffffffffffff168373ffffffffffffffffffffffffffffffffffffffff16141561104b576040517f08c379a000000000000000000000000000000000000000000000000000000000815260040161104290611e69565b60405180910390fd5b80600560008573ffffffffffffffffffffffffffffffffffffffff1673ffffffffffffffffffffffffffffffffffffffff16815260200190815260200160002060008473ffffffffffffffffffffffffffffffffffffffff1673ffffffffffffffffffffffffffffffffffffffff16815260200190815260200160002060006101000a81548160ff0219169083151502179055508173ffffffffffffffffffffffffffffffffffffffff168373ffffffffffffffffffffffffffffffffffffffff167f17307eab39ab6107e8899845ad3d59bd9653f200f220920489ca2b5937696c318360405161113c9190611d6c565b60405180910390a3505050565b611154848484610ca5565b61116084848484611210565b61119f576040517f08c379a000000000000000000000000000000000000000000000000000000000815260040161119690611de9565b60405180910390fd5b50505050565b60008073ffffffffffffffffffffffffffffffffffffffff166111c783610f9f565b73ffffffffffffffffffffffffffffffffffffffff1614159050919050565b6112008282604051806020016040528060008152506113a7565b5050565b50505050565b50505050565b60006112318473ffffffffffffffffffffffffffffffffffffffff16611402565b1561139a578373ffffffffffffffffffffffffffffffffffffffff1663150b7a0261125a610b4f565b8786866040518563ffffffff1660e01b815260040161127c9493929190611d20565b602060405180830381600087803b15801561129657600080fd5b505af19250505080156112c757506040513d601f19601f820116820180604052508101906112c49190611a1f565b60015b61134a573d80600081146112f7576040519150601f19603f3d011682016040523d82523d6000602084013e6112fc565b606091505b50600081511415611342576040517f08c379a000000000000000000000000000000000000000000000000000000000815260040161133990611de9565b60405180910390fd5b805181602001fd5b63150b7a0260e01b7bffffffffffffffffffffffffffffffffffffffffffffffffffffffff1916817bffffffffffffffffffffffffffffffffffffffffffffffffffffffff19161491505061139f565b600190505b949350505050565b6113b18383611425565b6113be6000848484611210565b6113fd576040517f08c379a00000000000000000000000000000000000000000000000000000000081526004016113f490611de9565b60405180910390fd5b505050565b6000808273ffffffffffffffffffffffffffffffffffffffff163b119050919050565b600073ffffffffffffffffffffffffffffffffffffffff168273ffffffffffffffffffffffffffffffffffffffff161415611495576040517f08c379a000000000000000000000000000000000000000000000000000000000815260040161148c90611ea9565b60405180910390fd5b61149e816111a5565b156114de576040517f08c379a00000000000000000000000000000000000000000000000000000000081526004016114d590611e29565b60405180910390fd5b6114ec600083836001611204565b6114f5816111a5565b15611535576040517f08c379a000000000000000000000000000000000000000000000000000000000815260040161152c90611e29565b60405180910390fd5b6001600360008473ffffffffffffffffffffffffffffffffffffffff1673ffffffffffffffffffffffffffffffffffffffff16815260200190815260200160002060008282540192505081905550816002600083815260200190815260200160002060006101000a81548173ffffffffffffffffffffffffffffffffffffffff021916908373ffffffffffffffffffffffffffffffffffffffff160217905550808273ffffffffffffffffffffffffffffffffffffffff16600073ffffffffffffffffffffffffffffffffffffffff167fddf252ad1be2c89b69c2b068fc378daa952ba7f163c4a11628f55a4df523b3ef60405160405180910390a461163f60008383600161120a565b5050565b82805461164f906120b9565b90600052602060002090601f01602090048101928261167157600085556116b8565b82601f1061168a57805160ff19168380011785556116b8565b828001600101855582156116b8579182015b828111156116b757825182559160200191906001019061169c565b5b5090506116c591906116c9565b5090565b5b808211156116e25760008160009055506001016116ca565b5090565b60006116f96116f484611f69565b611f44565b905082815260208101848484011115611715576117146121f7565b5b611720848285612077565b509392505050565b600061173b61173684611f9a565b611f44565b905082815260208101848484011115611757576117566121f7565b5b611762848285612077565b509392505050565b6000813590506117798161250d565b92915050565b60008135905061178e81612524565b92915050565b6000813590506117a38161253b565b92915050565b6000815190506117b88161253b565b92915050565b600082601f8301126117d3576117d26121f2565b5b81356117e38482602086016116e6565b91505092915050565b600082601f830112611801576118006121f2565b5b8135611811848260208601611728565b91505092915050565b60008135905061182981612552565b92915050565b60006020828403121561184557611844612201565b5b60006118538482850161176a565b91505092915050565b6000806040838503121561187357611872612201565b5b60006118818582860161176a565b92505060206118928582860161176a565b9150509250929050565b6000806000606084860312156118b5576118b4612201565b5b60006118c38682870161176a565b93505060206118d48682870161176a565b92505060406118e58682870161181a565b9150509250925092565b6000806000806080858703121561190957611908612201565b5b60006119178782880161176a565b94505060206119288782880161176a565b93505060406119398782880161181a565b925050606085013567ffffffffffffffff81111561195a576119596121fc565b5b611966878288016117be565b91505092959194509250565b6000806040838503121561198957611988612201565b5b60006119978582860161176a565b92505060206119a88582860161177f565b9150509250929050565b600080604083850312156119c9576119c8612201565b5b60006119d78582860161176a565b92505060206119e88582860161181a565b9150509250929050565b600060208284031215611a0857611a07612201565b5b6000611a1684828501611794565b91505092915050565b600060208284031215611a3557611a34612201565b5b6000611a43848285016117a9565b91505092915050565b600060208284031215611a6257611a61612201565b5b600082013567ffffffffffffffff811115611a8057611a7f6121fc565b5b611a8c848285016117ec565b91505092915050565b600060208284031215611aab57611aaa612201565b5b6000611ab98482850161181a565b91505092915050565b611acb81612003565b82525050565b611ada81612015565b82525050565b6000611aeb82611fcb565b611af58185611fe1565b9350611b05818560208601612086565b611b0e81612206565b840191505092915050565b6000611b2482611fd6565b611b2e8185611ff2565b9350611b3e818560208601612086565b611b4781612206565b840191505092915050565b6000611b5f602d83611ff2565b9150611b6a82612217565b604082019050919050565b6000611b82601f83611ff2565b9150611b8d82612266565b602082019050919050565b6000611ba5603283611ff2565b9150611bb08261228f565b604082019050919050565b6000611bc8602583611ff2565b9150611bd3826122de565b604082019050919050565b6000611beb601c83611ff2565b9150611bf68261232d565b602082019050919050565b6000611c0e602483611ff2565b9150611c1982612356565b604082019050919050565b6000611c31601983611ff2565b9150611c3c826123a5565b602082019050919050565b6000611c54602983611ff2565b9150611c5f826123ce565b604082019050919050565b6000611c77602083611ff2565b9150611c828261241d565b602082019050919050565b6000611c9a601883611ff2565b9150611ca582612446565b602082019050919050565b6000611cbd602183611ff2565b9150611cc88261246f565b604082019050919050565b6000611ce0603d83611ff2565b9150611ceb826124be565b604082019050919050565b611cff8161206d565b82525050565b6000602082019050611d1a6000830184611ac2565b92915050565b6000608082019050611d356000830187611ac2565b611d426020830186611ac2565b611d4f6040830185611cf6565b8181036060830152611d618184611ae0565b905095945050505050565b6000602082019050611d816000830184611ad1565b92915050565b60006020820190508181036000830152611da18184611b19565b905092915050565b60006020820190508181036000830152611dc281611b52565b9050919050565b60006020820190508181036000830152611de281611b75565b9050919050565b60006020820190508181036000830152611e0281611b98565b9050919050565b60006020820190508181036000830152611e2281611bbb565b9050919050565b60006020820190508181036000830152611e4281611bde565b9050919050565b60006020820190508181036000830152611e6281611c01565b9050919050565b60006020820190508181036000830152611e8281611c24565b9050919050565b60006020820190508181036000830152611ea281611c47565b9050919050565b60006020820190508181036000830152611ec281611c6a565b9050919050565b60006020820190508181036000830152611ee281611c8d565b9050919050565b60006020820190508181036000830152611f0281611cb0565b9050919050565b60006020820190508181036000830152611f2281611cd3565b9050919050565b6000602082019050611f3e6000830184611cf6565b92915050565b6000611f4e611f5f565b9050611f5a82826120eb565b919050565b6000604051905090565b600067ffffffffffffffff821115611f8457611f836121c3565b5b611f8d82612206565b9050602081019050919050565b600067ffffffffffffffff821115611fb557611fb46121c3565b5b611fbe82612206565b9050602081019050919050565b600081519050919050565b600081519050919050565b600082825260208201905092915050565b600082825260208201905092915050565b600061200e8261204d565b9050919050565b60008115159050919050565b60007fffffffff0000000000000000000000000000000000000000000000000000000082169050919050565b600073ffffffffffffffffffffffffffffffffffffffff82169050919050565b6000819050919050565b82818337600083830152505050565b60005b838110156120a4578082015181840152602081019050612089565b838111156120b3576000848401525b50505050565b600060028204905060018216806120d157607f821691505b602082108114156120e5576120e4612194565b5b50919050565b6120f482612206565b810181811067ffffffffffffffff82111715612113576121126121c3565b5b80604052505050565b60006121278261206d565b91507fffffffffffffffffffffffffffffffffffffffffffffffffffffffffffffffff82141561215a57612159612165565b5b600182019050919050565b7f4e487b7100000000000000000000000000000000000000000000000000000000600052601160045260246000fd5b7f4e487b7100000000000000000000000000000000000000000000000000000000600052602260045260246000fd5b7f4e487b7100000000000000000000000000000000000000000000000000000000600052604160045260246000fd5b600080fd5b600080fd5b600080fd5b600080fd5b6000601f19601f8301169050919050565b7f4552433732313a2063616c6c6572206973206e6f7420746f6b656e206f776e6560008201527f72206f7220617070726f76656400000000000000000000000000000000000000602082015250565b7f55524920717565727920666f72206e6f6e6578697374656e7420746f6b656e00600082015250565b7f4552433732313a207472616e7366657220746f206e6f6e20455243373231526560008201527f63656976657220696d706c656d656e7465720000000000000000000000000000602082015250565b7f4552433732313a207472616e736665722066726f6d20696e636f72726563742060008201527f6f776e6572000000000000000000000000000000000000000000000000000000602082015250565b7f4552433732313a20746f6b656e20616c7265616479206d696e74656400000000600082015250565b7f4552433732313a207472616e7366657220746f20746865207a65726f2061646460008201527f7265737300000000000000000000000000000000000000000000000000000000602082015250565b7f4552433732313a20617070726f766520746f2063616c6c657200000000000000600082015250565b7f4552433732313a2061646472657373207a65726f206973206e6f74206120766160008201527f6c6964206f776e65720000000000000000000000000000000000000000000000602082015250565b7f4552433732313a206d696e7420746f20746865207a65726f2061646472657373600082015250565b7f4552433732313a20696e76616c696420746f6b656e2049440000000000000000600082015250565b7f4552433732313a20617070726f76616c20746f2063757272656e74206f776e6560008201527f7200000000000000000000000000000000000000000000000000000000000000602082015250565b7f4552433732313a20617070726f76652063616c6c6572206973206e6f7420746f60008201527f6b656e206f776e6572206f7220617070726f76656420666f7220616c6c000000602082015250565b61251681612003565b811461252157600080fd5b50565b61252d81612015565b811461253857600080fd5b50565b61254481612021565b811461254f57600080fd5b50565b61255b8161206d565b811461256657600080fd5b5056fea264697066735822122042ba2261db0421978d335c5e651abbd6933acbd8d47505b84b1b352487f4410964736f6c63430008070033",
  "devdoc": {
    "kind": "dev",
    "methods": {
      "approve(address,uint256)": {
        "details": "See {IERC721-approve}."
      },
      "balanceOf(address)": {
        "details": "See {IERC721-balanceOf}."
      },
      "getApproved(uint256)": {
        "details": "See {IERC721-getApproved}."
      },
      "isApprovedForAll(address,address)": {
        "details": "See {IERC721-isApprovedForAll}."
      },
      "name()": {
        "details": "See {IERC721Metadata-name}."
      },
      "ownerOf(uint256)": {
        "details": "See {IERC721-ownerOf}."
      },
      "safeTransferFrom(address,address,uint256)": {
        "details": "See {IERC721-safeTransferFrom}."
      },
      "safeTransferFrom(address,address,uint256,bytes)": {
        "details": "See {IERC721-safeTransferFrom}."
      },
      "setApprovalForAll(address,bool)": {
        "details": "See {IERC721-setApprovalForAll}."
      },
      "supportsInterface(bytes4)": {
        "details": "See {IERC165-supportsInterface}."
      },
      "symbol()": {
        "details": "See {IERC721Metadata-symbol}."
      },
      "tokenURI(uint256)": {
        "details": "See {IERC721Metadata-tokenURI}."
      },
      "transferFrom(address,address,uint256)": {
        "details": "See {IERC721-transferFrom}."
      }
    },
    "version": 1
  },
  "userdoc": {
    "kind": "user",
    "methods": {},
    "version": 1
  },
  "storageLayout": {
    "storage": [
      {
        "astId": 25,
        "contract": "contracts/FakeMedia.sol:FakeMedia",
        "label": "_name",
        "offset": 0,
        "slot": "0",
        "type": "t_string_storage"
      },
      {
        "astId": 27,
        "contract": "contracts/FakeMedia.sol:FakeMedia",
        "label": "_symbol",
        "offset": 0,
        "slot": "1",
        "type": "t_string_storage"
      },
      {
        "astId": 31,
        "contract": "contracts/FakeMedia.sol:FakeMedia",
        "label": "_owners",
        "offset": 0,
        "slot": "2",
        "type": "t_mapping(t_uint256,t_address)"
      },
      {
        "astId": 35,
        "contract": "contracts/FakeMedia.sol:FakeMedia",
        "label": "_balances",
        "offset": 0,
        "slot": "3",
        "type": "t_mapping(t_address,t_uint256)"
      },
      {
        "astId": 39,
        "contract": "contracts/FakeMedia.sol:FakeMedia",
        "label": "_tokenApprovals",
        "offset": 0,
        "slot": "4",
        "type": "t_mapping(t_uint256,t_address)"
      },
      {
        "astId": 45,
        "contract": "contracts/FakeMedia.sol:FakeMedia",
        "label": "_operatorApprovals",
        "offset": 0,
        "slot": "5",
        "type": "t_mapping(t_address,t_mapping(t_address,t_bool))"
      },
      {
        "astId": 2682,
        "contract": "contracts/FakeMedia.sol:FakeMedia",
        "label": "s_tokenCounter",
        "offset": 0,
        "slot": "6",
        "type": "t_uint256"
      },
      {
        "astId": 2686,
        "contract": "contracts/FakeMedia.sol:FakeMedia",
        "label": "tokenMediaURLs",
        "offset": 0,
        "slot": "7",
        "type": "t_mapping(t_uint256,t_string_storage)"
      }
    ],
    "types": {
      "t_address": {
        "encoding": "inplace",
        "label": "address",
        "numberOfBytes": "20"
      },
      "t_bool": {
        "encoding": "inplace",
        "label": "bool",
        "numberOfBytes": "1"
      },
      "t_mapping(t_address,t_bool)": {
        "encoding": "mapping",
        "key": "t_address",
        "label": "mapping(address => bool)",
        "numberOfBytes": "32",
        "value": "t_bool"
      },
      "t_mapping(t_address,t_mapping(t_address,t_bool))": {
        "encoding": "mapping",
        "key": "t_address",
        "label": "mapping(address => mapping(address => bool))",
        "numberOfBytes": "32",
        "value": "t_mapping(t_address,t_bool)"
      },
      "t_mapping(t_address,t_uint256)": {
        "encoding": "mapping",
        "key": "t_address",
        "label": "mapping(address => uint256)",
        "numberOfBytes": "32",
        "value": "t_uint256"
      },
      "t_mapping(t_uint256,t_address)": {
        "encoding": "mapping",
        "key": "t_uint256",
        "label": "mapping(uint256 => address)",
        "numberOfBytes": "32",
        "value": "t_address"
      },
      "t_mapping(t_uint256,t_string_storage)": {
        "encoding": "mapping",
        "key": "t_uint256",
        "label": "mapping(uint256 => string)",
        "numberOfBytes": "32",
        "value": "t_string_storage"
      },
      "t_string_storage": {
        "encoding": "bytes",
        "label": "string",
        "numberOfBytes": "32"
      },
      "t_uint256": {
        "encoding": "inplace",
        "label": "uint256",
        "numberOfBytes": "32"
      }
    }
  }
}