{
  "_format": "hh-sol-artifact-1",
  "contractName": "BasicNft",
  "sourceName": "contracts/tests/BasicNft.sol",
  "abi": [
    {
      "inputs": [],
      "stateMutability": "nonpayable",
      "type": "constructor"
    },
    {
      "anonymous": false,
      "inputs": [
        {
          "indexed": true,
          "internalType": "address",
          "name": "owner",
          "type": "address"
        },
        {
          "indexed": true,
          "internalType": "address",
          "name": "approved",
          "type": "address"
        },
        {
          "indexed": true,
          "internalType": "uint256",
          "name": "tokenId",
          "type": "uint256"
        }
      ],
      "name": "Approval",
      "type": "event"
    },
    {
      "anonymous": false,
      "inputs": [
        {
          "indexed": true,
          "internalType": "address",
          "name": "owner",
          "type": "address"
        },
        {
          "indexed": true,
          "internalType": "address",
          "name": "operator",
          "type": "address"
        },
        {
          "indexed": false,
          "internalType": "bool",
          "name": "approved",
          "type": "bool"
        }
      ],
      "name": "ApprovalForAll",
      "type": "event"
    },
    {
      "anonymous": false,
      "inputs": [
        {
          "indexed": true,
          "internalType": "uint256",
          "name": "tokenId",
          "type": "uint256"
        }
      ],
      "name": "DogMinted",
      "type": "event"
    },
    {
      "anonymous": false,
      "inputs": [
        {
          "indexed": true,
          "internalType": "address",
          "name": "from",
          "type": "address"
        },
        {
          "indexed": true,
          "internalType": "address",
          "name": "to",
          "type": "address"
        },
        {
          "indexed": true,
          "internalType": "uint256",
          "name": "tokenId",
          "type": "uint256"
        }
      ],
      "name": "Transfer",
      "type": "event"
    },
    {
      "inputs": [],
      "name": "TOKEN_URI",
      "outputs": [
        {
          "internalType": "string",
          "name": "",
          "type": "string"
        }
      ],
      "stateMutability": "view",
      "type": "function"
    },
    {
      "inputs": [
        {
          "internalType": "address",
          "name": "to",
          "type": "address"
        },
        {
          "internalType": "uint256",
          "name": "tokenId",
          "type": "uint256"
        }
      ],
      "name": "approve",
      "outputs": [],
      "stateMutability": "nonpayable",
      "type": "function"
    },
    {
      "inputs": [
        {
          "internalType": "address",
          "name": "owner",
          "type": "address"
        }
      ],
      "name": "balanceOf",
      "outputs": [
        {
          "internalType": "uint256",
          "name": "",
          "type": "uint256"
        }
      ],
      "stateMutability": "view",
      "type": "function"
    },
    {
      "inputs": [
        {
          "internalType": "uint256",
          "name": "tokenId",
          "type": "uint256"
        }
      ],
      "name": "getApproved",
      "outputs": [
        {
          "internalType": "address",
          "name": "",
          "type": "address"
        }
      ],
      "stateMutability": "view",
      "type": "function"
    },
    {
      "inputs": [],
      "name": "getTokenCounter",
      "outputs": [
        {
          "internalType": "uint256",
          "name": "",
          "type": "uint256"
        }
      ],
      "stateMutability": "view",
      "type": "function"
    },
    {
      "inputs": [
        {
          "internalType": "address",
          "name": "owner",
          "type": "address"
        },
        {
          "internalType": "address",
          "name": "operator",
          "type": "address"
        }
      ],
      "name": "isApprovedForAll",
      "outputs": [
        {
          "internalType": "bool",
          "name": "",
          "type": "bool"
        }
      ],
      "stateMutability": "view",
      "type": "function"
    },
    {
      "inputs": [],
      "name": "mintNft",
      "outputs": [],
      "stateMutability": "nonpayable",
      "type": "function"
    },
    {
      "inputs": [],
      "name": "name",
      "outputs": [
        {
          "internalType": "string",
          "name": "",
          "type": "string"
        }
      ],
      "stateMutability": "view",
      "type": "function"
    },
    {
      "inputs": [
        {
          "internalType": "uint256",
          "name": "tokenId",
          "type": "uint256"
        }
      ],
      "name": "ownerOf",
      "outputs": [
        {
          "internalType": "address",
          "name": "",
          "type": "address"
        }
      ],
      "stateMutability": "view",
      "type": "function"
    },
    {
      "inputs": [
        {
          "internalType": "address",
          "name": "from",
          "type": "address"
        },
        {
          "internalType": "address",
          "name": "to",
          "type": "address"
        },
        {
          "internalType": "uint256",
          "name": "tokenId",
          "type": "uint256"
        }
      ],
      "name": "safeTransferFrom",
      "outputs": [],
      "stateMutability": "nonpayable",
      "type": "function"
    },
    {
      "inputs": [
        {
          "internalType": "address",
          "name": "from",
          "type": "address"
        },
        {
          "internalType": "address",
          "name": "to",
          "type": "address"
        },
        {
          "internalType": "uint256",
          "name": "tokenId",
          "type": "uint256"
        },
        {
          "internalType": "bytes",
          "name": "data",
          "type": "bytes"
        }
      ],
      "name": "safeTransferFrom",
      "outputs": [],
      "stateMutability": "nonpayable",
      "type": "function"
    },
    {
      "inputs": [
        {
          "internalType": "address",
          "name": "operator",
          "type": "address"
        },
        {
          "internalType": "bool",
          "name": "approved",
          "type": "bool"
        }
      ],
      "name": "setApprovalForAll",
      "outputs": [],
      "stateMutability": "nonpayable",
      "type": "function"
    },
    {
      "inputs": [
        {
          "internalType": "bytes4",
          "name": "interfaceId",
          "type": "bytes4"
        }
      ],
      "name": "supportsInterface",
      "outputs": [
        {
          "internalType": "bool",
          "name": "",
          "type": "bool"
        }
      ],
      "stateMutability": "view",
      "type": "function"
    },
    {
      "inputs": [],
      "name": "symbol",
      "outputs": [
        {
          "internalType": "string",
          "name": "",
          "type": "string"
        }
      ],
      "stateMutability": "view",
      "type": "function"
    },
    {
      "inputs": [
        {
          "internalType": "uint256",
          "name": "tokenId",
          "type": "uint256"
        }
      ],
      "name": "tokenURI",
      "outputs": [
        {
          "internalType": "string",
          "name": "",
          "type": "string"
        }
      ],
      "stateMutability": "view",
      "type": "function"
    },
    {
      "inputs": [
        {
          "internalType": "address",
          "name": "from",
          "type": "address"
        },
        {
          "internalType": "address",
          "name": "to",
          "type": "address"
        },
        {
          "internalType": "uint256",
          "name": "tokenId",
          "type": "uint256"
        }
      ],
      "name": "transferFrom",
      "outputs": [],
      "stateMutability": "nonpayable",
      "type": "function"
    }
  ],
  "bytecode": "0x60806040523480156200001157600080fd5b506040518060400160405280600581526020017f446f6769650000000000000000000000000000000000000000000000000000008152506040518060400160405280600381526020017f444f470000000000000000000000000000000000000000000000000000000000815250816000908051906020019062000096929190620000c0565b508060019080519060200190620000af929190620000c0565b5050506000600681905550620001d5565b828054620000ce9062000170565b90600052602060002090601f016020900481019282620000f257600085556200013e565b82601f106200010d57805160ff19168380011785556200013e565b828001600101855582156200013e579182015b828111156200013d57825182559160200191906001019062000120565b5b5090506200014d919062000151565b5090565b5b808211156200016c57600081600090555060010162000152565b5090565b600060028204905060018216806200018957607f821691505b60208210811415620001a0576200019f620001a6565b5b50919050565b7f4e487b7100000000000000000000000000000000000000000000000000000000600052602260045260246000fd5b61244680620001e56000396000f3fe608060405234801561001057600080fd5b50600436106101005760003560e01c806370a0823111610097578063b88d4fde11610066578063b88d4fde146102ad578063c2229fea146102c9578063c87b56dd146102d3578063e985e9c51461030357610100565b806370a082311461022557806378ce90351461025557806395d89b4114610273578063a22cb4651461029157610100565b806323b872dd116100d357806323b872dd1461019f57806342842e0e146101bb5780636352211e146101d75780636e02007d1461020757610100565b806301ffc9a71461010557806306fdde0314610135578063081812fc14610153578063095ea7b314610183575b600080fd5b61011f600480360381019061011a9190611889565b610333565b60405161012c9190611bba565b60405180910390f35b61013d610415565b60405161014a9190611bd5565b60405180910390f35b61016d600480360381019061016891906118e3565b6104a7565b60405161017a9190611b53565b60405180910390f35b61019d60048036038101906101989190611849565b6104ed565b005b6101b960048036038101906101b49190611733565b610605565b005b6101d560048036038101906101d09190611733565b610665565b005b6101f160048036038101906101ec91906118e3565b610685565b6040516101fe9190611b53565b60405180910390f35b61020f61070c565b60405161021c9190611d77565b60405180910390f35b61023f600480360381019061023a91906116c6565b610716565b60405161024c9190611d77565b60405180910390f35b61025d6107ce565b60405161026a9190611bd5565b60405180910390f35b61027b6107ea565b6040516102889190611bd5565b60405180910390f35b6102ab60048036038101906102a69190611809565b61087c565b005b6102c760048036038101906102c29190611786565b610892565b005b6102d16108f4565b005b6102ed60048036038101906102e891906118e3565b610946565b6040516102fa9190611bd5565b60405180910390f35b61031d600480360381019061031891906116f3565b6109b0565b60405161032a9190611bba565b60405180910390f35b60007f80ac58cd000000000000000000000000000000000000000000000000000000007bffffffffffffffffffffffffffffffffffffffffffffffffffffffff1916827bffffffffffffffffffffffffffffffffffffffffffffffffffffffff191614806103fe57507f5b5e139f000000000000000000000000000000000000000000000000000000007bffffffffffffffffffffffffffffffffffffffffffffffffffffffff1916827bffffffffffffffffffffffffffffffffffffffffffffffffffffffff1916145b8061040e575061040d82610a44565b5b9050919050565b60606000805461042490611f2c565b80601f016020809104026020016040519081016040528092919081815260200182805461045090611f2c565b801561049d5780601f106104725761010080835404028352916020019161049d565b820191906000526020600020905b81548152906001019060200180831161048057829003601f168201915b5050505050905090565b60006104b282610aae565b6004600083815260200190815260200160002060009054906101000a900473ffffffffffffffffffffffffffffffffffffffff169050919050565b60006104f882610685565b90508073ffffffffffffffffffffffffffffffffffffffff168373ffffffffffffffffffffffffffffffffffffffff161415610569576040517f08c379a000000000000000000000000000000000000000000000000000000000815260040161056090611d37565b60405180910390fd5b8073ffffffffffffffffffffffffffffffffffffffff16610588610af9565b73ffffffffffffffffffffffffffffffffffffffff1614806105b757506105b6816105b1610af9565b6109b0565b5b6105f6576040517f08c379a00000000000000000000000000000000000000000000000000000000081526004016105ed90611d57565b60405180910390fd5b6106008383610b01565b505050565b610616610610610af9565b82610bba565b610655576040517f08c379a000000000000000000000000000000000000000000000000000000000815260040161064c90611bf7565b60405180910390fd5b610660838383610c4f565b505050565b61068083838360405180602001604052806000815250610892565b505050565b60008061069183610f49565b9050600073ffffffffffffffffffffffffffffffffffffffff168173ffffffffffffffffffffffffffffffffffffffff161415610703576040517f08c379a00000000000000000000000000000000000000000000000000000000081526004016106fa90611d17565b60405180910390fd5b80915050919050565b6000600654905090565b60008073ffffffffffffffffffffffffffffffffffffffff168273ffffffffffffffffffffffffffffffffffffffff161415610787576040517f08c379a000000000000000000000000000000000000000000000000000000000815260040161077e90611cb7565b60405180910390fd5b600360008373ffffffffffffffffffffffffffffffffffffffff1673ffffffffffffffffffffffffffffffffffffffff168152602001908152602001600020549050919050565b6040518060800160405280605781526020016123ba6057913981565b6060600180546107f990611f2c565b80601f016020809104026020016040519081016040528092919081815260200182805461082590611f2c565b80156108725780601f1061084757610100808354040283529160200191610872565b820191906000526020600020905b81548152906001019060200180831161085557829003601f168201915b5050505050905090565b61088e610887610af9565b8383610f86565b5050565b6108a361089d610af9565b83610bba565b6108e2576040517f08c379a00000000000000000000000000000000000000000000000000000000081526004016108d990611bf7565b60405180910390fd5b6108ee848484846110f3565b50505050565b6109003360065461114f565b6006547fef1da42f89c42f48befa143007e6f5efd84a2d1cc3dc97c5edd2d3373220f66d60405160405180910390a2600160065461093e9190611e20565b600681905550565b60606109518261116d565b610990576040517f08c379a000000000000000000000000000000000000000000000000000000000815260040161098790611cf7565b60405180910390fd5b6040518060800160405280605781526020016123ba605791399050919050565b6000600560008473ffffffffffffffffffffffffffffffffffffffff1673ffffffffffffffffffffffffffffffffffffffff16815260200190815260200160002060008373ffffffffffffffffffffffffffffffffffffffff1673ffffffffffffffffffffffffffffffffffffffff16815260200190815260200160002060009054906101000a900460ff16905092915050565b60007f01ffc9a7000000000000000000000000000000000000000000000000000000007bffffffffffffffffffffffffffffffffffffffffffffffffffffffff1916827bffffffffffffffffffffffffffffffffffffffffffffffffffffffff1916149050919050565b610ab78161116d565b610af6576040517f08c379a0000000000000000000000000000000000000000000000000000000008152600401610aed90611d17565b60405180910390fd5b50565b600033905090565b816004600083815260200190815260200160002060006101000a81548173ffffffffffffffffffffffffffffffffffffffff021916908373ffffffffffffffffffffffffffffffffffffffff160217905550808273ffffffffffffffffffffffffffffffffffffffff16610b7483610685565b73ffffffffffffffffffffffffffffffffffffffff167f8c5be1e5ebec7d5bd14f71427d1e84f3dd0314c0f7b2291e5b200ac8c7c3b92560405160405180910390a45050565b600080610bc683610685565b90508073ffffffffffffffffffffffffffffffffffffffff168473ffffffffffffffffffffffffffffffffffffffff161480610c085750610c0781856109b0565b5b80610c4657508373ffffffffffffffffffffffffffffffffffffffff16610c2e846104a7565b73ffffffffffffffffffffffffffffffffffffffff16145b91505092915050565b8273ffffffffffffffffffffffffffffffffffffffff16610c6f82610685565b73ffffffffffffffffffffffffffffffffffffffff1614610cc5576040517f08c379a0000000000000000000000000000000000000000000000000000000008152600401610cbc90611c37565b60405180910390fd5b600073ffffffffffffffffffffffffffffffffffffffff168273ffffffffffffffffffffffffffffffffffffffff161415610d35576040517f08c379a0000000000000000000000000000000000000000000000000000000008152600401610d2c90611c77565b60405180910390fd5b610d4283838360016111ae565b8273ffffffffffffffffffffffffffffffffffffffff16610d6282610685565b73ffffffffffffffffffffffffffffffffffffffff1614610db8576040517f08c379a0000000000000000000000000000000000000000000000000000000008152600401610daf90611c37565b60405180910390fd5b6004600082815260200190815260200160002060006101000a81549073ffffffffffffffffffffffffffffffffffffffff02191690556001600360008573ffffffffffffffffffffffffffffffffffffffff1673ffffffffffffffffffffffffffffffffffffffff168152602001908152602001600020600082825403925050819055506001600360008473ffffffffffffffffffffffffffffffffffffffff1673ffffffffffffffffffffffffffffffffffffffff16815260200190815260200160002060008282540192505081905550816002600083815260200190815260200160002060006101000a81548173ffffffffffffffffffffffffffffffffffffffff021916908373ffffffffffffffffffffffffffffffffffffffff160217905550808273ffffffffffffffffffffffffffffffffffffffff168473ffffffffffffffffffffffffffffffffffffffff167fddf252ad1be2c89b69c2b068fc378daa952ba7f163c4a11628f55a4df523b3ef60405160405180910390a4610f4483838360016111b4565b505050565b60006002600083815260200190815260200160002060009054906101000a900473ffffffffffffffffffffffffffffffffffffffff169050919050565b8173ffffffffffffffffffffffffffffffffffffffff168373ffffffffffffffffffffffffffffffffffffffff161415610ff5576040517f08c379a0000000000000000000000000000000000000000000000000000000008152600401610fec90611c97565b60405180910390fd5b80600560008573ffffffffffffffffffffffffffffffffffffffff1673ffffffffffffffffffffffffffffffffffffffff16815260200190815260200160002060008473ffffffffffffffffffffffffffffffffffffffff1673ffffffffffffffffffffffffffffffffffffffff16815260200190815260200160002060006101000a81548160ff0219169083151502179055508173ffffffffffffffffffffffffffffffffffffffff168373ffffffffffffffffffffffffffffffffffffffff167f17307eab39ab6107e8899845ad3d59bd9653f200f220920489ca2b5937696c31836040516110e69190611bba565b60405180910390a3505050565b6110fe848484610c4f565b61110a848484846111ba565b611149576040517f08c379a000000000000000000000000000000000000000000000000000000000815260040161114090611c17565b60405180910390fd5b50505050565b611169828260405180602001604052806000815250611351565b5050565b60008073ffffffffffffffffffffffffffffffffffffffff1661118f83610f49565b73ffffffffffffffffffffffffffffffffffffffff1614159050919050565b50505050565b50505050565b60006111db8473ffffffffffffffffffffffffffffffffffffffff166113ac565b15611344578373ffffffffffffffffffffffffffffffffffffffff1663150b7a02611204610af9565b8786866040518563ffffffff1660e01b81526004016112269493929190611b6e565b602060405180830381600087803b15801561124057600080fd5b505af192505050801561127157506040513d601f19601f8201168201806040525081019061126e91906118b6565b60015b6112f4573d80600081146112a1576040519150601f19603f3d011682016040523d82523d6000602084013e6112a6565b606091505b506000815114156112ec576040517f08c379a00000000000000000000000000000000000000000000000000000000081526004016112e390611c17565b60405180910390fd5b805181602001fd5b63150b7a0260e01b7bffffffffffffffffffffffffffffffffffffffffffffffffffffffff1916817bffffffffffffffffffffffffffffffffffffffffffffffffffffffff191614915050611349565b600190505b949350505050565b61135b83836113cf565b61136860008484846111ba565b6113a7576040517f08c379a000000000000000000000000000000000000000000000000000000000815260040161139e90611c17565b60405180910390fd5b505050565b6000808273ffffffffffffffffffffffffffffffffffffffff163b119050919050565b600073ffffffffffffffffffffffffffffffffffffffff168273ffffffffffffffffffffffffffffffffffffffff16141561143f576040517f08c379a000000000000000000000000000000000000000000000000000000000815260040161143690611cd7565b60405180910390fd5b6114488161116d565b15611488576040517f08c379a000000000000000000000000000000000000000000000000000000000815260040161147f90611c57565b60405180910390fd5b6114966000838360016111ae565b61149f8161116d565b156114df576040517f08c379a00000000000000000000000000000000000000000000000000000000081526004016114d690611c57565b60405180910390fd5b6001600360008473ffffffffffffffffffffffffffffffffffffffff1673ffffffffffffffffffffffffffffffffffffffff16815260200190815260200160002060008282540192505081905550816002600083815260200190815260200160002060006101000a81548173ffffffffffffffffffffffffffffffffffffffff021916908373ffffffffffffffffffffffffffffffffffffffff160217905550808273ffffffffffffffffffffffffffffffffffffffff16600073ffffffffffffffffffffffffffffffffffffffff167fddf252ad1be2c89b69c2b068fc378daa952ba7f163c4a11628f55a4df523b3ef60405160405180910390a46115e96000838360016111b4565b5050565b60006116006115fb84611db7565b611d92565b90508281526020810184848401111561161c5761161b612021565b5b611627848285611eea565b509392505050565b60008135905061163e8161235d565b92915050565b60008135905061165381612374565b92915050565b6000813590506116688161238b565b92915050565b60008151905061167d8161238b565b92915050565b600082601f8301126116985761169761201c565b5b81356116a88482602086016115ed565b91505092915050565b6000813590506116c0816123a2565b92915050565b6000602082840312156116dc576116db61202b565b5b60006116ea8482850161162f565b91505092915050565b6000806040838503121561170a5761170961202b565b5b60006117188582860161162f565b92505060206117298582860161162f565b9150509250929050565b60008060006060848603121561174c5761174b61202b565b5b600061175a8682870161162f565b935050602061176b8682870161162f565b925050604061177c868287016116b1565b9150509250925092565b600080600080608085870312156117a05761179f61202b565b5b60006117ae8782880161162f565b94505060206117bf8782880161162f565b93505060406117d0878288016116b1565b925050606085013567ffffffffffffffff8111156117f1576117f0612026565b5b6117fd87828801611683565b91505092959194509250565b600080604083850312156118205761181f61202b565b5b600061182e8582860161162f565b925050602061183f85828601611644565b9150509250929050565b600080604083850312156118605761185f61202b565b5b600061186e8582860161162f565b925050602061187f858286016116b1565b9150509250929050565b60006020828403121561189f5761189e61202b565b5b60006118ad84828501611659565b91505092915050565b6000602082840312156118cc576118cb61202b565b5b60006118da8482850161166e565b91505092915050565b6000602082840312156118f9576118f861202b565b5b6000611907848285016116b1565b91505092915050565b61191981611e76565b82525050565b61192881611e88565b82525050565b600061193982611de8565b6119438185611dfe565b9350611953818560208601611ef9565b61195c81612030565b840191505092915050565b600061197282611df3565b61197c8185611e0f565b935061198c818560208601611ef9565b61199581612030565b840191505092915050565b60006119ad602d83611e0f565b91506119b882612041565b604082019050919050565b60006119d0603283611e0f565b91506119db82612090565b604082019050919050565b60006119f3602583611e0f565b91506119fe826120df565b604082019050919050565b6000611a16601c83611e0f565b9150611a218261212e565b602082019050919050565b6000611a39602483611e0f565b9150611a4482612157565b604082019050919050565b6000611a5c601983611e0f565b9150611a67826121a6565b602082019050919050565b6000611a7f602983611e0f565b9150611a8a826121cf565b604082019050919050565b6000611aa2602083611e0f565b9150611aad8261221e565b602082019050919050565b6000611ac5602f83611e0f565b9150611ad082612247565b604082019050919050565b6000611ae8601883611e0f565b9150611af382612296565b602082019050919050565b6000611b0b602183611e0f565b9150611b16826122bf565b604082019050919050565b6000611b2e603d83611e0f565b9150611b398261230e565b604082019050919050565b611b4d81611ee0565b82525050565b6000602082019050611b686000830184611910565b92915050565b6000608082019050611b836000830187611910565b611b906020830186611910565b611b9d6040830185611b44565b8181036060830152611baf818461192e565b905095945050505050565b6000602082019050611bcf600083018461191f565b92915050565b60006020820190508181036000830152611bef8184611967565b905092915050565b60006020820190508181036000830152611c10816119a0565b9050919050565b60006020820190508181036000830152611c30816119c3565b9050919050565b60006020820190508181036000830152611c50816119e6565b9050919050565b60006020820190508181036000830152611c7081611a09565b9050919050565b60006020820190508181036000830152611c9081611a2c565b9050919050565b60006020820190508181036000830152611cb081611a4f565b9050919050565b60006020820190508181036000830152611cd081611a72565b9050919050565b60006020820190508181036000830152611cf081611a95565b9050919050565b60006020820190508181036000830152611d1081611ab8565b9050919050565b60006020820190508181036000830152611d3081611adb565b9050919050565b60006020820190508181036000830152611d5081611afe565b9050919050565b60006020820190508181036000830152611d7081611b21565b9050919050565b6000602082019050611d8c6000830184611b44565b92915050565b6000611d9c611dad565b9050611da88282611f5e565b919050565b6000604051905090565b600067ffffffffffffffff821115611dd257611dd1611fed565b5b611ddb82612030565b9050602081019050919050565b600081519050919050565b600081519050919050565b600082825260208201905092915050565b600082825260208201905092915050565b6000611e2b82611ee0565b9150611e3683611ee0565b9250827fffffffffffffffffffffffffffffffffffffffffffffffffffffffffffffffff03821115611e6b57611e6a611f8f565b5b828201905092915050565b6000611e8182611ec0565b9050919050565b60008115159050919050565b60007fffffffff0000000000000000000000000000000000000000000000000000000082169050919050565b600073ffffffffffffffffffffffffffffffffffffffff82169050919050565b6000819050919050565b82818337600083830152505050565b60005b83811015611f17578082015181840152602081019050611efc565b83811115611f26576000848401525b50505050565b60006002820490506001821680611f4457607f821691505b60208210811415611f5857611f57611fbe565b5b50919050565b611f6782612030565b810181811067ffffffffffffffff82111715611f8657611f85611fed565b5b80604052505050565b7f4e487b7100000000000000000000000000000000000000000000000000000000600052601160045260246000fd5b7f4e487b7100000000000000000000000000000000000000000000000000000000600052602260045260246000fd5b7f4e487b7100000000000000000000000000000000000000000000000000000000600052604160045260246000fd5b600080fd5b600080fd5b600080fd5b600080fd5b6000601f19601f8301169050919050565b7f4552433732313a2063616c6c6572206973206e6f7420746f6b656e206f776e6560008201527f72206f7220617070726f76656400000000000000000000000000000000000000602082015250565b7f4552433732313a207472616e7366657220746f206e6f6e20455243373231526560008201527f63656976657220696d706c656d656e7465720000000000000000000000000000602082015250565b7f4552433732313a207472616e736665722066726f6d20696e636f72726563742060008201527f6f776e6572000000000000000000000000000000000000000000000000000000602082015250565b7f4552433732313a20746f6b656e20616c7265616479206d696e74656400000000600082015250565b7f4552433732313a207472616e7366657220746f20746865207a65726f2061646460008201527f7265737300000000000000000000000000000000000000000000000000000000602082015250565b7f4552433732313a20617070726f766520746f2063616c6c657200000000000000600082015250565b7f4552433732313a2061646472657373207a65726f206973206e6f74206120766160008201527f6c6964206f776e65720000000000000000000000000000000000000000000000602082015250565b7f4552433732313a206d696e7420746f20746865207a65726f2061646472657373600082015250565b7f4552433732314d657461646174613a2055524920717565727920666f72206e6f60008201527f6e6578697374656e7420746f6b656e0000000000000000000000000000000000602082015250565b7f4552433732313a20696e76616c696420746f6b656e2049440000000000000000600082015250565b7f4552433732313a20617070726f76616c20746f2063757272656e74206f776e6560008201527f7200000000000000000000000000000000000000000000000000000000000000602082015250565b7f4552433732313a20617070726f76652063616c6c6572206973206e6f7420746f60008201527f6b656e206f776e6572206f7220617070726f76656420666f7220616c6c000000602082015250565b61236681611e76565b811461237157600080fd5b50565b61237d81611e88565b811461238857600080fd5b50565b61239481611e94565b811461239f57600080fd5b50565b6123ab81611ee0565b81146123b657600080fd5b5056fe697066733a2f2f62616679626569673337696f6972373673376d67356f6f6265746e636f6a636d3363336878617379643472766964346a71687934676b61686567342f3f66696c656e616d653d302d5055472e6a736f6ea2646970667358221220c8df8904bd5ee2ca0c80f23aee3bdf8d882e3165c3fdf641ff78a023b9667dbb64736f6c63430008070033",
  "linkReferences": {},
  "deployedLinkReferences": {}
}